{
  "_format": "hh-sol-artifact-1",
  "contractName": "ImpactBadge",
  "sourceName": "contracts/DonationRegistry.sol",
  "abi": [
    {
      "inputs": [],
      "stateMutability": "nonpayable",
      "type": "constructor"
    },
    {
      "inputs": [
        {
          "internalType": "address",
          "name": "sender",
          "type": "address"
        },
        {
          "internalType": "uint256",
          "name": "tokenId",
          "type": "uint256"
        },
        {
          "internalType": "address",
          "name": "owner",
          "type": "address"
        }
      ],
      "name": "ERC721IncorrectOwner",
      "type": "error"
    },
    {
      "inputs": [
        {
          "internalType": "address",
          "name": "operator",
          "type": "address"
        },
        {
          "internalType": "uint256",
          "name": "tokenId",
          "type": "uint256"
        }
      ],
      "name": "ERC721InsufficientApproval",
      "type": "error"
    },
    {
      "inputs": [
        {
          "internalType": "address",
          "name": "approver",
          "type": "address"
        }
      ],
      "name": "ERC721InvalidApprover",
      "type": "error"
    },
    {
      "inputs": [
        {
          "internalType": "address",
          "name": "operator",
          "type": "address"
        }
      ],
      "name": "ERC721InvalidOperator",
      "type": "error"
    },
    {
      "inputs": [
        {
          "internalType": "address",
          "name": "owner",
          "type": "address"
        }
      ],
      "name": "ERC721InvalidOwner",
      "type": "error"
    },
    {
      "inputs": [
        {
          "internalType": "address",
          "name": "receiver",
          "type": "address"
        }
      ],
      "name": "ERC721InvalidReceiver",
      "type": "error"
    },
    {
      "inputs": [
        {
          "internalType": "address",
          "name": "sender",
          "type": "address"
        }
      ],
      "name": "ERC721InvalidSender",
      "type": "error"
    },
    {
      "inputs": [
        {
          "internalType": "uint256",
          "name": "tokenId",
          "type": "uint256"
        }
      ],
      "name": "ERC721NonexistentToken",
      "type": "error"
    },
    {
      "inputs": [
        {
          "internalType": "address",
          "name": "owner",
          "type": "address"
        }
      ],
      "name": "OwnableInvalidOwner",
      "type": "error"
    },
    {
      "inputs": [
        {
          "internalType": "address",
          "name": "account",
          "type": "address"
        }
      ],
      "name": "OwnableUnauthorizedAccount",
      "type": "error"
    },
    {
      "anonymous": false,
      "inputs": [
        {
          "indexed": true,
          "internalType": "address",
          "name": "owner",
          "type": "address"
        },
        {
          "indexed": true,
          "internalType": "address",
          "name": "approved",
          "type": "address"
        },
        {
          "indexed": true,
          "internalType": "uint256",
          "name": "tokenId",
          "type": "uint256"
        }
      ],
      "name": "Approval",
      "type": "event"
    },
    {
      "anonymous": false,
      "inputs": [
        {
          "indexed": true,
          "internalType": "address",
          "name": "owner",
          "type": "address"
        },
        {
          "indexed": true,
          "internalType": "address",
          "name": "operator",
          "type": "address"
        },
        {
          "indexed": false,
          "internalType": "bool",
          "name": "approved",
          "type": "bool"
        }
      ],
      "name": "ApprovalForAll",
      "type": "event"
    },
    {
      "anonymous": false,
      "inputs": [
        {
          "indexed": true,
          "internalType": "uint256",
          "name": "tokenId",
          "type": "uint256"
        },
        {
          "indexed": true,
          "internalType": "address",
          "name": "recipient",
          "type": "address"
        },
        {
          "indexed": true,
          "internalType": "uint256",
          "name": "donationId",
          "type": "uint256"
        },
        {
          "indexed": false,
          "internalType": "string",
          "name": "campaign",
          "type": "string"
        },
        {
          "indexed": false,
          "internalType": "uint256",
          "name": "score",
          "type": "uint256"
        }
      ],
      "name": "BadgeMinted",
      "type": "event"
    },
    {
      "anonymous": false,
      "inputs": [
        {
          "indexed": true,
          "internalType": "address",
          "name": "previousOwner",
          "type": "address"
        },
        {
          "indexed": true,
          "internalType": "address",
          "name": "newOwner",
          "type": "address"
        }
      ],
      "name": "OwnershipTransferred",
      "type": "event"
    },
    {
      "anonymous": false,
      "inputs": [
        {
          "indexed": true,
          "internalType": "address",
          "name": "from",
          "type": "address"
        },
        {
          "indexed": true,
          "internalType": "address",
          "name": "to",
          "type": "address"
        },
        {
          "indexed": true,
          "internalType": "uint256",
          "name": "tokenId",
          "type": "uint256"
        }
      ],
      "name": "Transfer",
      "type": "event"
    },
    {
      "inputs": [
        {
          "internalType": "address",
          "name": "to",
          "type": "address"
        },
        {
          "internalType": "uint256",
          "name": "tokenId",
          "type": "uint256"
        }
      ],
      "name": "approve",
      "outputs": [],
      "stateMutability": "nonpayable",
      "type": "function"
    },
    {
      "inputs": [
        {
          "internalType": "uint256",
          "name": "",
          "type": "uint256"
        }
      ],
      "name": "badgeMetadata",
      "outputs": [
        {
          "internalType": "uint256",
          "name": "donationId",
          "type": "uint256"
        },
        {
          "internalType": "uint256",
          "name": "amount",
          "type": "uint256"
        },
        {
          "internalType": "string",
          "name": "campaign",
          "type": "string"
        },
        {
          "internalType": "uint256",
          "name": "verificationScore",
          "type": "uint256"
        },
        {
          "internalType": "uint256",
          "name": "mintedAt",
          "type": "uint256"
        },
        {
          "internalType": "string",
          "name": "metadataURI",
          "type": "string"
        }
      ],
      "stateMutability": "view",
      "type": "function"
    },
    {
      "inputs": [
        {
          "internalType": "address",
          "name": "owner",
          "type": "address"
        }
      ],
      "name": "balanceOf",
      "outputs": [
        {
          "internalType": "uint256",
          "name": "",
          "type": "uint256"
        }
      ],
      "stateMutability": "view",
      "type": "function"
    },
    {
      "inputs": [
        {
          "internalType": "uint256",
          "name": "",
          "type": "uint256"
        }
      ],
      "name": "donationToBadge",
      "outputs": [
        {
          "internalType": "uint256",
          "name": "",
          "type": "uint256"
        }
      ],
      "stateMutability": "view",
      "type": "function"
    },
    {
      "inputs": [
        {
          "internalType": "uint256",
          "name": "tokenId",
          "type": "uint256"
        }
      ],
      "name": "getApproved",
      "outputs": [
        {
          "internalType": "address",
          "name": "",
          "type": "address"
        }
      ],
      "stateMutability": "view",
      "type": "function"
    },
    {
      "inputs": [
        {
          "internalType": "uint256",
          "name": "tokenId",
          "type": "uint256"
        }
      ],
      "name": "getBadgeMetadata",
      "outputs": [
        {
          "components": [
            {
              "internalType": "uint256",
              "name": "donationId",
              "type": "uint256"
            },
            {
              "internalType": "uint256",
              "name": "amount",
              "type": "uint256"
            },
            {
              "internalType": "string",
              "name": "campaign",
              "type": "string"
            },
            {
              "internalType": "uint256",
              "name": "verificationScore",
              "type": "uint256"
            },
            {
              "internalType": "uint256",
              "name": "mintedAt",
              "type": "uint256"
            },
            {
              "internalType": "string",
              "name": "metadataURI",
              "type": "string"
            }
          ],
          "internalType": "struct ImpactBadge.BadgeMetadata",
          "name": "",
          "type": "tuple"
        }
      ],
      "stateMutability": "view",
      "type": "function"
    },
    {
      "inputs": [
        {
          "internalType": "address",
          "name": "owner",
          "type": "address"
        },
        {
          "internalType": "address",
          "name": "operator",
          "type": "address"
        }
      ],
      "name": "isApprovedForAll",
      "outputs": [
        {
          "internalType": "bool",
          "name": "",
          "type": "bool"
        }
      ],
      "stateMutability": "view",
      "type": "function"
    },
    {
      "inputs": [
        {
          "internalType": "address",
          "name": "recipient",
          "type": "address"
        },
        {
          "internalType": "uint256",
          "name": "donationId",
          "type": "uint256"
        },
        {
          "internalType": "uint256",
          "name": "amount",
          "type": "uint256"
        },
        {
          "internalType": "string",
          "name": "campaign",
          "type": "string"
        },
        {
          "internalType": "uint256",
          "name": "verificationScore",
          "type": "uint256"
        },
        {
          "internalType": "string",
          "name": "metadataURI",
          "type": "string"
        }
      ],
      "name": "mintBadge",
      "outputs": [
        {
          "internalType": "uint256",
          "name": "",
          "type": "uint256"
        }
      ],
      "stateMutability": "nonpayable",
      "type": "function"
    },
    {
      "inputs": [],
      "name": "name",
      "outputs": [
        {
          "internalType": "string",
          "name": "",
          "type": "string"
        }
      ],
      "stateMutability": "view",
      "type": "function"
    },
    {
      "inputs": [],
      "name": "owner",
      "outputs": [
        {
          "internalType": "address",
          "name": "",
          "type": "address"
        }
      ],
      "stateMutability": "view",
      "type": "function"
    },
    {
      "inputs": [
        {
          "internalType": "uint256",
          "name": "tokenId",
          "type": "uint256"
        }
      ],
      "name": "ownerOf",
      "outputs": [
        {
          "internalType": "address",
          "name": "",
          "type": "address"
        }
      ],
      "stateMutability": "view",
      "type": "function"
    },
    {
      "inputs": [],
      "name": "renounceOwnership",
      "outputs": [],
      "stateMutability": "nonpayable",
      "type": "function"
    },
    {
      "inputs": [
        {
          "internalType": "address",
          "name": "from",
          "type": "address"
        },
        {
          "internalType": "address",
          "name": "to",
          "type": "address"
        },
        {
          "internalType": "uint256",
          "name": "tokenId",
          "type": "uint256"
        }
      ],
      "name": "safeTransferFrom",
      "outputs": [],
      "stateMutability": "nonpayable",
      "type": "function"
    },
    {
      "inputs": [
        {
          "internalType": "address",
          "name": "from",
          "type": "address"
        },
        {
          "internalType": "address",
          "name": "to",
          "type": "address"
        },
        {
          "internalType": "uint256",
          "name": "tokenId",
          "type": "uint256"
        },
        {
          "internalType": "bytes",
          "name": "data",
          "type": "bytes"
        }
      ],
      "name": "safeTransferFrom",
      "outputs": [],
      "stateMutability": "nonpayable",
      "type": "function"
    },
    {
      "inputs": [
        {
          "internalType": "address",
          "name": "operator",
          "type": "address"
        },
        {
          "internalType": "bool",
          "name": "approved",
          "type": "bool"
        }
      ],
      "name": "setApprovalForAll",
      "outputs": [],
      "stateMutability": "nonpayable",
      "type": "function"
    },
    {
      "inputs": [
        {
          "internalType": "bytes4",
          "name": "interfaceId",
          "type": "bytes4"
        }
      ],
      "name": "supportsInterface",
      "outputs": [
        {
          "internalType": "bool",
          "name": "",
          "type": "bool"
        }
      ],
      "stateMutability": "view",
      "type": "function"
    },
    {
      "inputs": [],
      "name": "symbol",
      "outputs": [
        {
          "internalType": "string",
          "name": "",
          "type": "string"
        }
      ],
      "stateMutability": "view",
      "type": "function"
    },
    {
      "inputs": [
        {
          "internalType": "uint256",
          "name": "tokenId",
          "type": "uint256"
        }
      ],
      "name": "tokenURI",
      "outputs": [
        {
          "internalType": "string",
          "name": "",
          "type": "string"
        }
      ],
      "stateMutability": "view",
      "type": "function"
    },
    {
      "inputs": [],
      "name": "totalSupply",
      "outputs": [
        {
          "internalType": "uint256",
          "name": "",
          "type": "uint256"
        }
      ],
      "stateMutability": "view",
      "type": "function"
    },
    {
      "inputs": [
        {
          "internalType": "address",
          "name": "from",
          "type": "address"
        },
        {
          "internalType": "address",
          "name": "to",
          "type": "address"
        },
        {
          "internalType": "uint256",
          "name": "tokenId",
          "type": "uint256"
        }
      ],
      "name": "transferFrom",
      "outputs": [],
      "stateMutability": "nonpayable",
      "type": "function"
    },
    {
      "inputs": [
        {
          "internalType": "address",
          "name": "newOwner",
          "type": "address"
        }
      ],
      "name": "transferOwnership",
      "outputs": [],
      "stateMutability": "nonpayable",
      "type": "function"
    }
  ],
  "bytecode": "0x608060405260016007553480156200001657600080fd5b50336040518060400160405280601081526020016f496d706163744563686f20426164676560801b815250604051806040016040528060068152602001651253541050d560d21b8152508160009081620000719190620001bb565b506001620000808282620001bb565b5050506001600160a01b038116620000b257604051631e4fbdf760e01b81526000600482015260240160405180910390fd5b620000bd81620000c4565b5062000287565b600680546001600160a01b038381166001600160a01b0319831681179093556040519116919082907f8be0079c531659141344cd1fd0a4f28419497f9722a3daafe3b4186f6b6457e090600090a35050565b634e487b7160e01b600052604160045260246000fd5b600181811c908216806200014157607f821691505b6020821081036200016257634e487b7160e01b600052602260045260246000fd5b50919050565b601f821115620001b657600081815260208120601f850160051c81016020861015620001915750805b601f850160051c820191505b81811015620001b2578281556001016200019d565b5050505b505050565b81516001600160401b03811115620001d757620001d762000116565b620001ef81620001e884546200012c565b8462000168565b602080601f8311600181146200022757600084156200020e5750858301515b600019600386901b1c1916600185901b178555620001b2565b600085815260208120601f198616915b82811015620002585788860151825594840194600190910190840162000237565b5085821015620002775787850151600019600388901b60f8161c191681555b5050505050600190811b01905550565b61180d80620002976000396000f3fe608060405234801561001057600080fd5b50600436106101375760003560e01c8063715018a6116100b8578063b88d4fde1161007c578063b88d4fde14610282578063c87b56dd14610295578063d19b6106146102a8578063e4de973d146102c8578063e985e9c5146102ed578063f2fde38b1461030057600080fd5b8063715018a61461023b5780637aabb6ed146102435780638da5cb5b1461025657806395d89b4114610267578063a22cb4651461026f57600080fd5b806323b872dd116100ff57806323b872dd146101cf57806342842e0e146101e25780634768abcb146101f55780636352211e1461021557806370a082311461022857600080fd5b806301ffc9a71461013c57806306fdde0314610164578063081812fc14610179578063095ea7b3146101a457806318160ddd146101b9575b600080fd5b61014f61014a3660046111cb565b610313565b60405190151581526020015b60405180910390f35b61016c610365565b60405161015b9190611235565b61018c610187366004611248565b6103f7565b6040516001600160a01b03909116815260200161015b565b6101b76101b236600461127d565b610420565b005b6101c161042f565b60405190815260200161015b565b6101b76101dd3660046112a7565b610445565b6101b76101f03660046112a7565b6104d5565b6101c1610203366004611248565b60096020526000908152604090205481565b61018c610223366004611248565b6104f5565b6101c16102363660046112e3565b610500565b6101b7610548565b6101c16102513660046113aa565b61055c565b6006546001600160a01b031661018c565b61016c6106df565b6101b761027d36600461143a565b6106ee565b6101b7610290366004611476565b6106f9565b61016c6102a3366004611248565b610711565b6102bb6102b6366004611248565b610810565b60405161015b91906114f2565b6102db6102d6366004611248565b610a15565b60405161015b9695949392919061155c565b61014f6102fb3660046115a6565b610b5a565b6101b761030e3660046112e3565b610b88565b60006001600160e01b031982166380ac58cd60e01b148061034457506001600160e01b03198216635b5e139f60e01b145b8061035f57506301ffc9a760e01b6001600160e01b03198316145b92915050565b606060008054610374906115d9565b80601f01602080910402602001604051908101604052809291908181526020018280546103a0906115d9565b80156103ed5780601f106103c2576101008083540402835291602001916103ed565b820191906000526020600020905b8154815290600101906020018083116103d057829003601f168201915b5050505050905090565b600061040282610bc6565b506000828152600460205260409020546001600160a01b031661035f565b61042b828233610bff565b5050565b600060016007546104409190611629565b905090565b6001600160a01b03821661047457604051633250574960e11b8152600060048201526024015b60405180910390fd5b6000610481838333610c0c565b9050836001600160a01b0316816001600160a01b0316146104cf576040516364283d7b60e01b81526001600160a01b038086166004830152602482018490528216604482015260640161046b565b50505050565b6104f0838383604051806020016040528060008152506106f9565b505050565b600061035f82610bc6565b60006001600160a01b03821661052c576040516322718ad960e21b81526000600482015260240161046b565b506001600160a01b031660009081526003602052604090205490565b610550610d05565b61055a6000610d32565b565b6000610566610d05565b600086815260096020526040902054156105d15760405162461bcd60e51b815260206004820152602660248201527f426164676520616c7265616479206d696e74656420666f72207468697320646f6044820152653730ba34b7b760d11b606482015260840161046b565b60078054600091826105e28361163c565b9190505590506105f28882610d84565b6040805160c08101825288815260208082018981528284018981526060840189905242608085015260a08401889052600086815260089093529390912082518155905160018201559151909190600282019061064e908261169b565b50606082015160038201556080820151600482015560a08201516005820190610677908261169b565b505050600087815260096020526040908190208290555187906001600160a01b038a169083907f704ab404c190cac91bbdf49e747ad62ce4e998e2ec1780c4d8757cab511f93ad906106cc908a908a9061175b565b60405180910390a4979650505050505050565b606060018054610374906115d9565b61042b338383610d9e565b610704848484610445565b6104cf3385858585610e3d565b6000818152600260205260409020546060906001600160a01b031661076f5760405162461bcd60e51b8152602060048201526014602482015273151bdad95b88191bd95cc81b9bdd08195e1a5cdd60621b604482015260640161046b565b6000828152600860205260409020600501805461078b906115d9565b80601f01602080910402602001604051908101604052809291908181526020018280546107b7906115d9565b80156108045780601f106107d957610100808354040283529160200191610804565b820191906000526020600020905b8154815290600101906020018083116107e757829003601f168201915b50505050509050919050565b6108496040518060c001604052806000815260200160008152602001606081526020016000815260200160008152602001606081525090565b6000828152600260205260409020546001600160a01b03166108a45760405162461bcd60e51b8152602060048201526014602482015273151bdad95b88191bd95cc81b9bdd08195e1a5cdd60621b604482015260640161046b565b600860008381526020019081526020016000206040518060c001604052908160008201548152602001600182015481526020016002820180546108e6906115d9565b80601f0160208091040260200160405190810160405280929190818152602001828054610912906115d9565b801561095f5780601f106109345761010080835404028352916020019161095f565b820191906000526020600020905b81548152906001019060200180831161094257829003601f168201915b50505050508152602001600382015481526020016004820154815260200160058201805461098c906115d9565b80601f01602080910402602001604051908101604052809291908181526020018280546109b8906115d9565b8015610a055780601f106109da57610100808354040283529160200191610a05565b820191906000526020600020905b8154815290600101906020018083116109e857829003601f168201915b5050505050815250509050919050565b60086020526000908152604090208054600182015460028301805492939192610a3d906115d9565b80601f0160208091040260200160405190810160405280929190818152602001828054610a69906115d9565b8015610ab65780601f10610a8b57610100808354040283529160200191610ab6565b820191906000526020600020905b815481529060010190602001808311610a9957829003601f168201915b505050505090806003015490806004015490806005018054610ad7906115d9565b80601f0160208091040260200160405190810160405280929190818152602001828054610b03906115d9565b8015610b505780601f10610b2557610100808354040283529160200191610b50565b820191906000526020600020905b815481529060010190602001808311610b3357829003601f168201915b5050505050905086565b6001600160a01b03918216600090815260056020908152604080832093909416825291909152205460ff1690565b610b90610d05565b6001600160a01b038116610bba57604051631e4fbdf760e01b81526000600482015260240161046b565b610bc381610d32565b50565b6000818152600260205260408120546001600160a01b03168061035f57604051637e27328960e01b81526004810184905260240161046b565b6104f08383836001610f68565b6000828152600260205260408120546001600160a01b0390811690831615610c3957610c3981848661106e565b6001600160a01b03811615610c7757610c56600085600080610f68565b6001600160a01b038116600090815260036020526040902080546000190190555b6001600160a01b03851615610ca6576001600160a01b0385166000908152600360205260409020805460010190555b60008481526002602052604080822080546001600160a01b0319166001600160a01b0389811691821790925591518793918516917fddf252ad1be2c89b69c2b068fc378daa952ba7f163c4a11628f55a4df523b3ef91a4949350505050565b6006546001600160a01b0316331461055a5760405163118cdaa760e01b815233600482015260240161046b565b600680546001600160a01b038381166001600160a01b0319831681179093556040519116919082907f8be0079c531659141344cd1fd0a4f28419497f9722a3daafe3b4186f6b6457e090600090a35050565b61042b8282604051806020016040528060008152506110d2565b6001600160a01b038216610dd057604051630b61174360e31b81526001600160a01b038316600482015260240161046b565b6001600160a01b03838116600081815260056020908152604080832094871680845294825291829020805460ff191686151590811790915591519182527f17307eab39ab6107e8899845ad3d59bd9653f200f220920489ca2b5937696c31910160405180910390a3505050565b6001600160a01b0383163b15610f6157604051630a85bd0160e11b81526001600160a01b0384169063150b7a0290610e7f90889088908790879060040161177d565b6020604051808303816000875af1925050508015610eba575060408051601f3d908101601f19168201909252610eb7918101906117ba565b60015b610f23573d808015610ee8576040519150601f19603f3d011682016040523d82523d6000602084013e610eed565b606091505b508051600003610f1b57604051633250574960e11b81526001600160a01b038516600482015260240161046b565b805160208201fd5b6001600160e01b03198116630a85bd0160e11b14610f5f57604051633250574960e11b81526001600160a01b038516600482015260240161046b565b505b5050505050565b8080610f7c57506001600160a01b03821615155b1561103e576000610f8c84610bc6565b90506001600160a01b03831615801590610fb85750826001600160a01b0316816001600160a01b031614155b8015610fcb5750610fc98184610b5a565b155b15610ff45760405163a9fbf51f60e01b81526001600160a01b038416600482015260240161046b565b811561103c5783856001600160a01b0316826001600160a01b03167f8c5be1e5ebec7d5bd14f71427d1e84f3dd0314c0f7b2291e5b200ac8c7c3b92560405160405180910390a45b505b5050600090815260046020526040902080546001600160a01b0319166001600160a01b0392909216919091179055565b6110798383836110ea565b6104f0576001600160a01b0383166110a757604051637e27328960e01b81526004810182905260240161046b565b60405163177e802f60e01b81526001600160a01b03831660048201526024810182905260440161046b565b6110dc8383611150565b6104f0336000858585610e3d565b60006001600160a01b038316158015906111485750826001600160a01b0316846001600160a01b0316148061112457506111248484610b5a565b8061114857506000828152600460205260409020546001600160a01b038481169116145b949350505050565b6001600160a01b03821661117a57604051633250574960e11b81526000600482015260240161046b565b600061118883836000610c0c565b90506001600160a01b038116156104f0576040516339e3563760e11b81526000600482015260240161046b565b6001600160e01b031981168114610bc357600080fd5b6000602082840312156111dd57600080fd5b81356111e8816111b5565b9392505050565b6000815180845260005b81811015611215576020818501810151868301820152016111f9565b506000602082860101526020601f19601f83011685010191505092915050565b6020815260006111e860208301846111ef565b60006020828403121561125a57600080fd5b5035919050565b80356001600160a01b038116811461127857600080fd5b919050565b6000806040838503121561129057600080fd5b61129983611261565b946020939093013593505050565b6000806000606084860312156112bc57600080fd5b6112c584611261565b92506112d360208501611261565b9150604084013590509250925092565b6000602082840312156112f557600080fd5b6111e882611261565b634e487b7160e01b600052604160045260246000fd5b600067ffffffffffffffff8084111561132f5761132f6112fe565b604051601f8501601f19908116603f01168101908282118183101715611357576113576112fe565b8160405280935085815286868601111561137057600080fd5b858560208301376000602087830101525050509392505050565b600082601f83011261139b57600080fd5b6111e883833560208501611314565b60008060008060008060c087890312156113c357600080fd5b6113cc87611261565b95506020870135945060408701359350606087013567ffffffffffffffff808211156113f757600080fd5b6114038a838b0161138a565b94506080890135935060a089013591508082111561142057600080fd5b5061142d89828a0161138a565b9150509295509295509295565b6000806040838503121561144d57600080fd5b61145683611261565b91506020830135801515811461146b57600080fd5b809150509250929050565b6000806000806080858703121561148c57600080fd5b61149585611261565b93506114a360208601611261565b925060408501359150606085013567ffffffffffffffff8111156114c657600080fd5b8501601f810187136114d757600080fd5b6114e687823560208401611314565b91505092959194509250565b6020815281516020820152602082015160408201526000604083015160c0606084015261152260e08401826111ef565b905060608401516080840152608084015160a084015260a0840151601f198483030160c085015261155382826111ef565b95945050505050565b86815285602082015260c06040820152600061157b60c08301876111ef565b85606084015284608084015282810360a084015261159981856111ef565b9998505050505050505050565b600080604083850312156115b957600080fd5b6115c283611261565b91506115d060208401611261565b90509250929050565b600181811c908216806115ed57607f821691505b60208210810361160d57634e487b7160e01b600052602260045260246000fd5b50919050565b634e487b7160e01b600052601160045260246000fd5b8181038181111561035f5761035f611613565b60006001820161164e5761164e611613565b5060010190565b601f8211156104f057600081815260208120601f850160051c8101602086101561167c5750805b601f850160051c820191505b81811015610f5f57828155600101611688565b815167ffffffffffffffff8111156116b5576116b56112fe565b6116c9816116c384546115d9565b84611655565b602080601f8311600181146116fe57600084156116e65750858301515b600019600386901b1c1916600185901b178555610f5f565b600085815260208120601f198616915b8281101561172d5788860151825594840194600190910190840161170e565b508582101561174b5787850151600019600388901b60f8161c191681555b5050505050600190811b01905550565b60408152600061176e60408301856111ef565b90508260208301529392505050565b6001600160a01b03858116825284166020820152604081018390526080606082018190526000906117b0908301846111ef565b9695505050505050565b6000602082840312156117cc57600080fd5b81516111e8816111b556fea26469706673582212209ed0770dcfccb274cd17b1478e8bafaf1f47b50f83e16861c45ddf2013f0970064736f6c63430008140033",
  "linkReferences": {},
  "deployedLinkReferences": {}
}