{
  "_format": "hh-sol-artifact-1",
  "contractName": "DonationRegistry",
  "sourceName": "contracts/DonationRegistry.sol",
  "abi": [
    {
      "inputs": [],
      "stateMutability": "nonpayable",
      "type": "constructor"
    },
    {
      "inputs": [
        {
          "internalType": "address",
          "name": "owner",
          "type": "address"
        }
      ],
      "name": "OwnableInvalidOwner",
      "type": "error"
    },
    {
      "inputs": [
        {
          "internalType": "address",
          "name": "account",
          "type": "address"
        }
      ],
      "name": "OwnableUnauthorizedAccount",
      "type": "error"
    },
    {
      "inputs": [],
      "name": "ReentrancyGuardReentrantCall",
      "type": "error"
    },
    {
      "anonymous": false,
      "inputs": [
        {
          "indexed": true,
          "internalType": "uint256",
          "name": "donationId",
          "type": "uint256"
        },
        {
          "indexed": true,
          "internalType": "address",
          "name": "donor",
          "type": "address"
        },
        {
          "indexed": false,
          "internalType": "uint256",
          "name": "amount",
          "type": "uint256"
        },
        {
          "indexed": false,
          "internalType": "string",
          "name": "ipfsCID",
          "type": "string"
        },
        {
          "indexed": false,
          "internalType": "string",
          "name": "campaign",
          "type": "string"
        },
        {
          "indexed": false,
          "internalType": "uint256",
          "name": "timestamp",
          "type": "uint256"
        }
      ],
      "name": "DonationRegistered",
      "type": "event"
    },
    {
      "anonymous": false,
      "inputs": [
        {
          "indexed": true,
          "internalType": "uint256",
          "name": "donationId",
          "type": "uint256"
        },
        {
          "indexed": false,
          "internalType": "bool",
          "name": "verified",
          "type": "bool"
        },
        {
          "indexed": false,
          "internalType": "string",
          "name": "verifierCID",
          "type": "string"
        },
        {
          "indexed": false,
          "internalType": "uint256",
          "name": "score",
          "type": "uint256"
        },
        {
          "indexed": false,
          "internalType": "uint256",
          "name": "timestamp",
          "type": "uint256"
        }
      ],
      "name": "DonationVerified",
      "type": "event"
    },
    {
      "anonymous": false,
      "inputs": [
        {
          "indexed": true,
          "internalType": "address",
          "name": "previousOwner",
          "type": "address"
        },
        {
          "indexed": true,
          "internalType": "address",
          "name": "newOwner",
          "type": "address"
        }
      ],
      "name": "OwnershipTransferred",
      "type": "event"
    },
    {
      "anonymous": false,
      "inputs": [
        {
          "indexed": true,
          "internalType": "address",
          "name": "verifier",
          "type": "address"
        }
      ],
      "name": "VerifierAdded",
      "type": "event"
    },
    {
      "anonymous": false,
      "inputs": [
        {
          "indexed": true,
          "internalType": "address",
          "name": "verifier",
          "type": "address"
        }
      ],
      "name": "VerifierRemoved",
      "type": "event"
    },
    {
      "inputs": [
        {
          "internalType": "address",
          "name": "verifier",
          "type": "address"
        }
      ],
      "name": "addVerifier",
      "outputs": [],
      "stateMutability": "nonpayable",
      "type": "function"
    },
    {
      "inputs": [
        {
          "internalType": "uint256",
          "name": "",
          "type": "uint256"
        }
      ],
      "name": "donations",
      "outputs": [
        {
          "internalType": "uint256",
          "name": "id",
          "type": "uint256"
        },
        {
          "internalType": "address",
          "name": "donor",
          "type": "address"
        },
        {
          "internalType": "uint256",
          "name": "amount",
          "type": "uint256"
        },
        {
          "internalType": "string",
          "name": "ipfsCID",
          "type": "string"
        },
        {
          "internalType": "uint256",
          "name": "timestamp",
          "type": "uint256"
        },
        {
          "internalType": "bool",
          "name": "verified",
          "type": "bool"
        },
        {
          "internalType": "string",
          "name": "verifierCID",
          "type": "string"
        },
        {
          "internalType": "uint256",
          "name": "verificationScore",
          "type": "uint256"
        },
        {
          "internalType": "string",
          "name": "campaign",
          "type": "string"
        },
        {
          "internalType": "bool",
          "name": "badgeMinted",
          "type": "bool"
        }
      ],
      "stateMutability": "view",
      "type": "function"
    },
    {
      "inputs": [
        {
          "internalType": "address",
          "name": "",
          "type": "address"
        },
        {
          "internalType": "uint256",
          "name": "",
          "type": "uint256"
        }
      ],
      "name": "donorDonations",
      "outputs": [
        {
          "internalType": "uint256",
          "name": "",
          "type": "uint256"
        }
      ],
      "stateMutability": "view",
      "type": "function"
    },
    {
      "inputs": [
        {
          "internalType": "uint256",
          "name": "donationId",
          "type": "uint256"
        }
      ],
      "name": "getDonation",
      "outputs": [
        {
          "components": [
            {
              "internalType": "uint256",
              "name": "id",
              "type": "uint256"
            },
            {
              "internalType": "address",
              "name": "donor",
              "type": "address"
            },
            {
              "internalType": "uint256",
              "name": "amount",
              "type": "uint256"
            },
            {
              "internalType": "string",
              "name": "ipfsCID",
              "type": "string"
            },
            {
              "internalType": "uint256",
              "name": "timestamp",
              "type": "uint256"
            },
            {
              "internalType": "bool",
              "name": "verified",
              "type": "bool"
            },
            {
              "internalType": "string",
              "name": "verifierCID",
              "type": "string"
            },
            {
              "internalType": "uint256",
              "name": "verificationScore",
              "type": "uint256"
            },
            {
              "internalType": "string",
              "name": "campaign",
              "type": "string"
            },
            {
              "internalType": "bool",
              "name": "badgeMinted",
              "type": "bool"
            }
          ],
          "internalType": "struct DonationRegistry.Donation",
          "name": "",
          "type": "tuple"
        }
      ],
      "stateMutability": "view",
      "type": "function"
    },
    {
      "inputs": [
        {
          "internalType": "address",
          "name": "donor",
          "type": "address"
        }
      ],
      "name": "getDonationsByDonor",
      "outputs": [
        {
          "internalType": "uint256[]",
          "name": "",
          "type": "uint256[]"
        }
      ],
      "stateMutability": "view",
      "type": "function"
    },
    {
      "inputs": [],
      "name": "getStats",
      "outputs": [
        {
          "internalType": "uint256",
          "name": "_totalDonations",
          "type": "uint256"
        },
        {
          "internalType": "uint256",
          "name": "_totalVerified",
          "type": "uint256"
        },
        {
          "internalType": "uint256",
          "name": "_totalAmount",
          "type": "uint256"
        }
      ],
      "stateMutability": "view",
      "type": "function"
    },
    {
      "inputs": [],
      "name": "getTotalDonations",
      "outputs": [
        {
          "internalType": "uint256",
          "name": "",
          "type": "uint256"
        }
      ],
      "stateMutability": "view",
      "type": "function"
    },
    {
      "inputs": [
        {
          "internalType": "uint256",
          "name": "donationId",
          "type": "uint256"
        }
      ],
      "name": "markBadgeMinted",
      "outputs": [],
      "stateMutability": "nonpayable",
      "type": "function"
    },
    {
      "inputs": [],
      "name": "owner",
      "outputs": [
        {
          "internalType": "address",
          "name": "",
          "type": "address"
        }
      ],
      "stateMutability": "view",
      "type": "function"
    },
    {
      "inputs": [
        {
          "internalType": "address",
          "name": "donor",
          "type": "address"
        },
        {
          "internalType": "uint256",
          "name": "amount",
          "type": "uint256"
        },
        {
          "internalType": "string",
          "name": "ipfsCID",
          "type": "string"
        },
        {
          "internalType": "string",
          "name": "campaign",
          "type": "string"
        }
      ],
      "name": "registerDonation",
      "outputs": [
        {
          "internalType": "uint256",
          "name": "",
          "type": "uint256"
        }
      ],
      "stateMutability": "nonpayable",
      "type": "function"
    },
    {
      "inputs": [
        {
          "internalType": "address",
          "name": "verifier",
          "type": "address"
        }
      ],
      "name": "removeVerifier",
      "outputs": [],
      "stateMutability": "nonpayable",
      "type": "function"
    },
    {
      "inputs": [],
      "name": "renounceOwnership",
      "outputs": [],
      "stateMutability": "nonpayable",
      "type": "function"
    },
    {
      "inputs": [],
      "name": "totalAmount",
      "outputs": [
        {
          "internalType": "uint256",
          "name": "",
          "type": "uint256"
        }
      ],
      "stateMutability": "view",
      "type": "function"
    },
    {
      "inputs": [],
      "name": "totalDonations",
      "outputs": [
        {
          "internalType": "uint256",
          "name": "",
          "type": "uint256"
        }
      ],
      "stateMutability": "view",
      "type": "function"
    },
    {
      "inputs": [],
      "name": "totalVerified",
      "outputs": [
        {
          "internalType": "uint256",
          "name": "",
          "type": "uint256"
        }
      ],
      "stateMutability": "view",
      "type": "function"
    },
    {
      "inputs": [
        {
          "internalType": "address",
          "name": "newOwner",
          "type": "address"
        }
      ],
      "name": "transferOwnership",
      "outputs": [],
      "stateMutability": "nonpayable",
      "type": "function"
    },
    {
      "inputs": [
        {
          "internalType": "address",
          "name": "",
          "type": "address"
        }
      ],
      "name": "verifiers",
      "outputs": [
        {
          "internalType": "bool",
          "name": "",
          "type": "bool"
        }
      ],
      "stateMutability": "view",
      "type": "function"
    },
    {
      "inputs": [
        {
          "internalType": "uint256",
          "name": "donationId",
          "type": "uint256"
        },
        {
          "internalType": "bool",
          "name": "verified",
          "type": "bool"
        },
        {
          "internalType": "string",
          "name": "verifierCID",
          "type": "string"
        },
        {
          "internalType": "uint256",
          "name": "score",
          "type": "uint256"
        }
      ],
      "name": "verifyDonation",
      "outputs": [],
      "stateMutability": "nonpayable",
      "type": "function"
    }
  ],
  "bytecode": "0x6080604052600160025534801561001557600080fd5b50338061003c57604051631e4fbdf760e01b81526000600482015260240160405180910390fd5b6100458161006a565b506001808055336000908152600560205260409020805460ff191690911790556100ba565b600080546001600160a01b038381166001600160a01b0319831681178455604051919092169283917f8be0079c531659141344cd1fd0a4f28419497f9722a3daafe3b4186f6b6457e09190a35050565b611579806100c96000396000f3fe608060405234801561001057600080fd5b50600436106101165760003560e01c80639fdb6dfd116100a2578063de2ed89311610071578063de2ed8931461024d578063ef07a81f14610256578063f2fde38b14610276578063f8626af814610289578063fe9eba15146102b257600080fd5b80639fdb6dfd146101f0578063c59d484714610203578063c9526c9814610227578063ca2dfd0a1461023a57600080fd5b8063715018a6116100e9578063715018a61461019d578063777c658f146101a75780638da5cb5b146101af5780639000b3d6146101ca5780639858ea42146101dd57600080fd5b80631a39d8ef1461011b5780633d0d3086146101375780634395e1bf146101575780636c8244871461016a575b600080fd5b61012460085481565b6040519081526020015b60405180910390f35b61014a610145366004610f2e565b6102bb565b60405161012e9190610f50565b610124610165366004610f94565b610327565b61018d610178366004610f2e565b60056020526000908152604090205460ff1681565b604051901515815260200161012e565b6101a5610358565b005b61012461036c565b6000546040516001600160a01b03909116815260200161012e565b6101a56101d8366004610f2e565b610382565b6101246101eb366004611061565b610481565b6101a56101fe3660046110df565b610667565b6006546007546008546040805193845260208401929092529082015260600161012e565b6101a5610235366004611145565b610839565b6101a5610248366004610f2e565b6108e5565b61012460065481565b610269610264366004611145565b61098f565b60405161012e91906111a4565b6101a5610284366004610f2e565b610c5a565b61029c610297366004611145565b610c98565b60405161012e9a9998979695949392919061127d565b61012460075481565b6001600160a01b03811660009081526004602090815260409182902080548351818402810184019094528084526060939283018282801561031b57602002820191906000526020600020905b815481526020019060010190808311610307575b50505050509050919050565b6004602052816000526040600020818154811061034357600080fd5b90600052602060002001600091509150505481565b610360610e95565b61036a6000610ec2565b565b6000600160025461037d919061131d565b905090565b61038a610e95565b6001600160a01b0381166103d75760405162461bcd60e51b815260206004820152600f60248201526e496e76616c6964206164647265737360881b60448201526064015b60405180910390fd5b6001600160a01b03811660009081526005602052604090205460ff16156104355760405162461bcd60e51b815260206004820152601260248201527120b63932b0b23c9030903b32b934b334b2b960711b60448201526064016103ce565b6001600160a01b038116600081815260056020526040808220805460ff19166001179055517f6d05492139c5ea989514a5d2150c028041e5c087e2a39967f67dc7d2655adb819190a250565b600061048b610e95565b600280546000918261049c83611336565b9091555060408051610140810182528281526001600160a01b0389811660208084019182528385018b8152606085018b8152426080870152600060a087018190528751808501895281815260c088015260e0870181905261010087018c90526101208701819052888152600393849052969096208551815592516001840180546001600160a01b031916919095161790935591516002820155925193945090929082019061054a90826113d8565b506080820151600482015560a082015160058201805460ff191691151591909117905560c0820151600682019061058190826113d8565b5060e0820151600782015561010082015160088201906105a190826113d8565b5061012091909101516009909101805460ff19169115159190911790556001600160a01b0386166000908152600460209081526040822080546001810182559083529082200182905560068054916105f883611336565b9190505550846008600082825461060f9190611498565b92505081905550856001600160a01b0316817f30dc0f11e53fbde40b23a5f1842d1c9a146b90714a307dae8d5bfb618c969eb68787874260405161065694939291906114ab565b60405180910390a395945050505050565b3360009081526005602052604090205460ff168061068f57506000546001600160a01b031633145b6106db5760405162461bcd60e51b815260206004820152601760248201527f4e6f7420617574686f72697a656420766572696669657200000000000000000060448201526064016103ce565b6000841180156106ec575060025484105b6107085760405162461bcd60e51b81526004016103ce906114e8565b60008481526003602052604090206005015460ff161561075d5760405162461bcd60e51b815260206004820152601060248201526f105b1c9958591e481d995c9a599a595960821b60448201526064016103ce565b60648111156107a45760405162461bcd60e51b8152602060048201526013602482015272053636f7265206d75737420626520302d31303606c1b60448201526064016103ce565b600084815260036020526040902060058101805460ff1916851515179055600681016107d084826113d8565b506007810182905583156107f457600780549060006107ee83611336565b91905055505b847feb94eb878249bc7f1c9a832711fd94fa7d8bc4379f5c35fb6a2bef914ee22bee8585854260405161082a9493929190611515565b60405180910390a25050505050565b610841610e95565b600081118015610852575060025481105b61086e5760405162461bcd60e51b81526004016103ce906114e8565b60008181526003602052604090206005015460ff166108c75760405162461bcd60e51b8152602060048201526015602482015274111bdb985d1a5bdb881b9bdd081d995c9a599a5959605a1b60448201526064016103ce565b6000908152600360205260409020600901805460ff19166001179055565b6108ed610e95565b6001600160a01b03811660009081526005602052604090205460ff166109465760405162461bcd60e51b815260206004820152600e60248201526d2737ba1030903b32b934b334b2b960911b60448201526064016103ce565b6001600160a01b038116600081815260056020526040808220805460ff19169055517f44a3cd4eb5cc5748f6169df057b1cb2ae4c383e87cd94663c430e095d4cba4249190a250565b6109f26040518061014001604052806000815260200160006001600160a01b031681526020016000815260200160608152602001600081526020016000151581526020016060815260200160008152602001606081526020016000151581525090565b600082118015610a03575060025482105b610a1f5760405162461bcd60e51b81526004016103ce906114e8565b6000828152600360208181526040928390208351610140810185528154815260018201546001600160a01b0316928101929092526002810154938201939093529082018054919291606084019190610a769061134f565b80601f0160208091040260200160405190810160405280929190818152602001828054610aa29061134f565b8015610aef5780601f10610ac457610100808354040283529160200191610aef565b820191906000526020600020905b815481529060010190602001808311610ad257829003601f168201915b505050918352505060048201546020820152600582015460ff1615156040820152600682018054606090920191610b259061134f565b80601f0160208091040260200160405190810160405280929190818152602001828054610b519061134f565b8015610b9e5780601f10610b7357610100808354040283529160200191610b9e565b820191906000526020600020905b815481529060010190602001808311610b8157829003601f168201915b5050505050815260200160078201548152602001600882018054610bc19061134f565b80601f0160208091040260200160405190810160405280929190818152602001828054610bed9061134f565b8015610c3a5780601f10610c0f57610100808354040283529160200191610c3a565b820191906000526020600020905b815481529060010190602001808311610c1d57829003601f168201915b50505091835250506009919091015460ff16151560209091015292915050565b610c62610e95565b6001600160a01b038116610c8c57604051631e4fbdf760e01b8152600060048201526024016103ce565b610c9581610ec2565b50565b6003602081905260009182526040909120805460018201546002830154938301805492946001600160a01b03909216939192610cd39061134f565b80601f0160208091040260200160405190810160405280929190818152602001828054610cff9061134f565b8015610d4c5780601f10610d2157610100808354040283529160200191610d4c565b820191906000526020600020905b815481529060010190602001808311610d2f57829003601f168201915b50505050600483015460058401546006850180549495929460ff909216935090610d759061134f565b80601f0160208091040260200160405190810160405280929190818152602001828054610da19061134f565b8015610dee5780601f10610dc357610100808354040283529160200191610dee565b820191906000526020600020905b815481529060010190602001808311610dd157829003601f168201915b505050505090806007015490806008018054610e099061134f565b80601f0160208091040260200160405190810160405280929190818152602001828054610e359061134f565b8015610e825780601f10610e5757610100808354040283529160200191610e82565b820191906000526020600020905b815481529060010190602001808311610e6557829003601f168201915b5050506009909301549192505060ff168a565b6000546001600160a01b0316331461036a5760405163118cdaa760e01b81523360048201526024016103ce565b600080546001600160a01b038381166001600160a01b0319831681178455604051919092169283917f8be0079c531659141344cd1fd0a4f28419497f9722a3daafe3b4186f6b6457e09190a35050565b80356001600160a01b0381168114610f2957600080fd5b919050565b600060208284031215610f4057600080fd5b610f4982610f12565b9392505050565b6020808252825182820181905260009190848201906040850190845b81811015610f8857835183529284019291840191600101610f6c565b50909695505050505050565b60008060408385031215610fa757600080fd5b610fb083610f12565b946020939093013593505050565b634e487b7160e01b600052604160045260246000fd5b600082601f830112610fe557600080fd5b813567ffffffffffffffff8082111561100057611000610fbe565b604051601f8301601f19908116603f0116810190828211818310171561102857611028610fbe565b8160405283815286602085880101111561104157600080fd5b836020870160208301376000602085830101528094505050505092915050565b6000806000806080858703121561107757600080fd5b61108085610f12565b935060208501359250604085013567ffffffffffffffff808211156110a457600080fd5b6110b088838901610fd4565b935060608701359150808211156110c657600080fd5b506110d387828801610fd4565b91505092959194509250565b600080600080608085870312156110f557600080fd5b843593506020850135801515811461110c57600080fd5b9250604085013567ffffffffffffffff81111561112857600080fd5b61113487828801610fd4565b949793965093946060013593505050565b60006020828403121561115757600080fd5b5035919050565b6000815180845260005b8181101561118457602081850181015186830182015201611168565b506000602082860101526020601f19601f83011685010191505092915050565b6020815281516020820152600060208301516111cb60408401826001600160a01b03169052565b506040830151606083015260608301516101408060808501526111f261016085018361115e565b9150608085015160a085015260a085015161121160c086018215159052565b5060c0850151601f19808685030160e087015261122e848361115e565b935060e0870151915061010082818801528088015192505061012081878603018188015261125c858461115e565b945080880151925050506112738286018215159052565b5090949350505050565b8a81526001600160a01b038a16602082015260408101899052610140606082018190526000906112af8382018b61115e565b905088608084015287151560a084015282810360c08401526112d1818861115e565b90508560e08401528281036101008401526112ec818661115e565b9150508215156101208301529b9a5050505050505050505050565b634e487b7160e01b600052601160045260246000fd5b8181038181111561133057611330611307565b92915050565b60006001820161134857611348611307565b5060010190565b600181811c9082168061136357607f821691505b60208210810361138357634e487b7160e01b600052602260045260246000fd5b50919050565b601f8211156113d357600081815260208120601f850160051c810160208610156113b05750805b601f850160051c820191505b818110156113cf578281556001016113bc565b5050505b505050565b815167ffffffffffffffff8111156113f2576113f2610fbe565b61140681611400845461134f565b84611389565b602080601f83116001811461143b57600084156114235750858301515b600019600386901b1c1916600185901b1785556113cf565b600085815260208120601f198616915b8281101561146a5788860151825594840194600190910190840161144b565b50858210156114885787850151600019600388901b60f8161c191681555b5050505050600190811b01905550565b8082018082111561133057611330611307565b8481526080602082015260006114c4608083018661115e565b82810360408401526114d6818661115e565b91505082606083015295945050505050565b602080825260139082015272125b9d985b1a5908191bdb985d1a5bdb881251606a1b604082015260600190565b8415158152608060208201526000611530608083018661115e565b604083019490945250606001529291505056fea26469706673582212204dc8c150dfd60779c1ff8c7f8e738d73cac0f1b42b2aa9fc548cccef9053f93464736f6c63430008140033",
  "linkReferences": {},
  "deployedLinkReferences": {}
}